:020000040800F2
:100000000000022011D00008B94C0008BB4C0008C9
:10001000BD4C0008BF4C0008C14C000800000000A7
:10002000000000000000000000000000C34C0008B9
:10003000C54C000800000000C74C0008C94C00086F
:1000400061D0000861D0000861D0000861D00008CC
:1000500061D0000861D0000861D0000861D00008BC
:1000600061D0000861D0000861D0000861D00008AC
:1000700061D0000861D0000861D0000861D000089C
:1000800061D0000861D0000861D0000861D000088C
:1000900061D0000861D0000861D0000861D000087C
:1000A00061D0000861D0000861D0000861D000086C
:1000B00061D0000861D0000861D0000861D000085C
:1000C00061D0000861D0000861D0000861D000084C
:1000D00061D0000861D0000861D0000861D000083C
:1000E00061D0000861D0000861D0000861D000082C
:1000F00061D0000861D0000861D0000861D000081C
:1001000061D0000861D0000861D0000861D000080B
:1001100061D0000861D0000861D0000861D00008FB
:1001200061D0000861D00008ED4C000861D00008E3
:1001300061D00008000000000000000061D000084D
:1001400061D0000861D0000861D0000861D00008CB
:1001500061D0000861D0000861D0000861D00008BB
:1001600061D0000861D0000861D0000861D00008AB
:1001700061D0000861D0000800000000000000000D
:0801800061D0000861D0000805
:1001900010B5054C237833B9044B13B10448AFF3C1
:1001A00000800123237010BD900200200000000099
:1001B000E0F9000808B5034B1BB103490348AFF34E
:1001C000008008BD0000000094020020E0F9000853
:1001D000034613F8012B002AFBD1181A0138704787
:1001E00001F0FF01102A2BDB10F0070F08D010F8E8
:1001F000013B013A8B422DD010F0070F42B3F6D1EC
:10020000F0B441EA012141EA014122F007047FF004
:1002100000070023F0E80256083C85EA010586EA5B
:10022000010685FA47F5A3FA87F586FA47F6A5FA97
:1002300087F68EB9EED1F0BC01F0FF0102F00702A3
:1002400032B110F8013B013A83EA010313B1F8D14E
:100250000020704701387047002D06BF354603382F
:10026000073815F0010F07D1013015F4807F02BF68
:10027000013015F4C03F0130F0BC0138704700BFB9
:1002800081F0004102E000BF83F0004330B54FEA47
:1002900041044FEA430594EA050F08BF90EA020FB4
:1002A0001FBF54EA000C55EA020C7FEA645C7FEA47
:1002B000655C00F0E2804FEA5454D4EB5555B8BF6A
:1002C0006D420CDD2C4480EA020281EA030382EADB
:1002D000000083EA010180EA020281EA0303362D6D
:1002E00088BF30BD11F0004F4FEA01314FF4801C40
:1002F0004CEA113102D0404261EB410113F0004F52
:100300004FEA03334CEA133302D0524263EB430308
:1003100094EA050F00F0A780A4F10104D5F1200EA6
:100320000DDB02FA0EFC22FA05F2801841F1000101
:1003300003FA0EF2801843FA05F359410EE0A5F1D5
:1003400020050EF1200E012A03FA0EFC28BF4CF006
:10035000020C43FA05F3C01851EBE37101F00045BC
:1003600007D54FF0000EDCF1000C7EEB00006EEBC9
:100370000101B1F5801F1BD3B1F5001F0CD3490853
:100380005FEA30004FEA3C0C04F101044FEA4452AA
:1003900012F5800F80F09A80BCF1004F08BF5FEA31
:1003A000500C50F1000041EB045141EA050130BD11
:1003B0005FEA4C0C404141EB010111F4801FA4F1B4
:1003C0000104E9D191F0000F04BF01460020B1FA09
:1003D00081F308BF2033A3F10B03B3F120020CDA41
:1003E0000C3208DD02F1140CC2F10C0201FA0CF01F
:1003F00021FA02F10CE002F11402D8BFC2F1200C84
:1004000001FA02F120FA0CFCDCBF41EA0C01904039
:10041000E41AA2BF01EB0451294330BD6FEA040482
:100420001F3C1CDA0C340EDC04F11404C4F120026D
:1004300020FA04F001FA02F340EA030021FA04F37F
:1004400045EA030130BDC4F10C04C4F1200220FAD6
:1004500002F001FA04F340EA0300294630BD21FA14
:1004600004F0294630BD94F0000F83F4801306BFDA
:1004700081F480110134013D4EE77FEA645C18BFCE
:100480007FEA655C29D094EA050F08BF90EA020F65
:1004900005D054EA000C04BF1946104630BD91EA5D
:1004A000030F1EBF0021002030BD5FEA545C05D160
:1004B0004000494128BF41F0004130BD14F580049F
:1004C0003CBF01F5801130BD01F0004545F0FE4113
:1004D00041F470014FF0000030BD7FEA645C1ABF48
:1004E000194610467FEA655C1CBF0B46024650EA7F
:1004F000013406BF52EA033591EA030F41F40021AB
:1005000030BD00BF90F0000F04BF0021704730B530
:100510004FF4806404F132044FF000054FF0000105
:1005200050E700BF90F0000F04BF0021704730B5C6
:100530004FF4806404F1320410F0004548BF40429B
:100540004FF000013EE700BF42004FEAE2014FEAF0
:1005500031014FEA02701FBF12F07F4393F07F4FCB
:1005600081F06051704732F07F4208BF704793F0CE
:100570007F4F04BF41F40021704730B54FF46074E1
:1005800001F0004521F000411CE700BF50EA0102E4
:1005900008BF704730B54FF000050AE050EA01028D
:1005A00008BF704730B511F0004502D5404261EBFD
:1005B00041014FF4806404F132045FEA915C3FF43E
:1005C000D8AE4FF003025FEADC0C18BF03325FEADB
:1005D000DC0C18BF033202EBDC02C2F1200300FA8C
:1005E00003FC20FA02F001FA03FE40EA0E0021FAB1
:1005F00002F11444BDE600BF70B54FF0FF0C4CF49F
:10060000E06C1CEA11541DBF1CEA135594EA0C0F50
:1006100095EA0C0F00F0DEF82C4481EA030621EA8B
:100620004C5123EA4C5350EA013518BF52EA0335C6
:1006300041F4801143F4801338D0A0FB02CE4FF078
:100640000005E1FB02E506F00042E0FB03E54FF0A8
:100650000006E1FB03569CF0000F18BF4EF0010EA0
:10066000A4F1FF04B6F5007F64F5407404D25FEA9C
:100670004E0E6D4146EB060642EAC62141EA55514F
:100680004FEAC52040EA5E504FEACE2EB4F1FD0C91
:1006900088BFBCF5E06F1ED8BEF1004F08BF5FEA0F
:1006A000500E50F1000041EB045170BD06F00046C1
:1006B00046EA010140EA020081EA0301B4EB5C046E
:1006C000C2BFD4EB0C0541EA045170BD41F4801166
:1006D0004FF0000E013C00F3AB8014F1360FDEBF8B
:1006E000002001F0004170BDC4F10004203C35DA67
:1006F0000C341BDC04F11404C4F1200500FA05F3EA
:1007000020FA04F001FA05F240EA020001F000428A
:1007100021F0004110EBD37021FA04F642EB060100
:100720005EEA430E08BF20EAD37070BDC4F10C042A
:10073000C4F1200500FA04F320FA05F001FA04F2EE
:1007400040EA020001F0004110EBD37041F10001DA
:100750005EEA430E08BF20EAD37070BDC4F12005E5
:1007600000FA05F24EEA020E20FA04F301FA05F24D
:1007700043EA020321FA04F001F0004121FA04F2F5
:1007800020EA020000EBD3705EEA430E08BF20EAC5
:10079000D37070BD94F0000F0FD101F000464000FF
:1007A00041EB010111F4801F08BF013CF7D041EA81
:1007B000060195F0000F18BF704703F00046520085
:1007C00043EB030313F4801F08BF013DF7D043EA56
:1007D0000603704794EA0C0F0CEA135518BF95EA0C
:1007E0000C0F0CD050EA410618BF52EA4306D1D193
:1007F00081EA030101F000414FF0000070BD50EAB2
:10080000410606BF1046194652EA430619D094EA3B
:100810000C0F02D150EA013613D195EA0C0F05D125
:1008200052EA03361CBF104619460AD181EA030179
:1008300001F0004141F0FE4141F470014FF0000031
:1008400070BD41F0FE4141F4780170BD70B54FF0CC
:10085000FF0C4CF4E06C1CEA11541DBF1CEA13554C
:1008600094EA0C0F95EA0C0F00F0A7F8A4EB05042E
:1008700081EA030E52EA03354FEA013100F0888025
:100880004FEA03334FF0805545EA131343EA1263EE
:100890004FEA022245EA111545EA10654FEA0026A3
:1008A0000EF000419D4208BF964244F1FD0404F55C
:1008B000407402D25B084FEA3202B61A65EB0305B8
:1008C0005B084FEA32024FF480104FF4002CB6EB75
:1008D000020E75EB030E22BFB61A754640EA0C00F5
:1008E0005B084FEA3202B6EB020E75EB030E22BF35
:1008F000B61A754640EA5C005B084FEA3202B6EB76
:10090000020E75EB030E22BFB61A754640EA9C0034
:100910005B084FEA3202B6EB020E75EB030E22BF04
:10092000B61A754640EADC0055EA060E18D04FEAC2
:10093000051545EA16754FEA06164FEAC30343EA62
:1009400052734FEAC2025FEA1C1CC0D111F4801F2F
:100950000BD141EA00014FF000004FF0004CB6E728
:1009600011F4801F04BF01430020B4F1FD0C88BFC7
:10097000BCF5E06F3FF6AFAEB5EB030C04BFB6EBD2
:10098000020C5FEA500C50F1000041EB045170BDC5
:100990000EF0004E4EEA113114EB5C04C2BFD4EBF2
:1009A0000C0541EA045170BD41F480114FF0000E76
:1009B000013C90E645EA060E8DE60CEA135594EAF2
:1009C0000C0F08BF95EA0C0F3FF43BAF94EA0C0FF5
:1009D0000AD150EA01347FF434AF95EA0C0F7FF46A
:1009E00025AF104619462CE795EA0C0F06D152EABE
:1009F00003353FF4FDAE1046194622E750EA4106A2
:100A000018BF52EA43067FF4C5AE50EA41047FF4B2
:100A10000DAF52EA43057FF4EBAE12E74FF0FF3C17
:100A200006E000BF4FF0010C02E000BF4FF0010CE8
:100A30004DF804CD4FEA410C7FEA6C5C4FEA430C61
:100A400018BF7FEA6C5C1BD001B050EA410C0CBFB0
:100A500052EA430C91EA030F02BF90EA020F002012
:100A6000704710F1000F91EA030F58BF994208BF79
:100A700090422CBFD8176FEAE37040F00100704736
:100A80004FEA410C7FEA6C5C02D150EA013C07D18D
:100A90004FEA430C7FEA6C5CD6D152EA033CD3D0D8
:100AA0005DF8040B704700BF8446104662468C46D2
:100AB0001946634600E000BF01B5FFF7B7FF002805
:100AC00048BF10F1000F01BD4DF808EDFFF7F4FF2E
:100AD0000CBF012000205DF808FB00BF4DF808EDB9
:100AE000FFF7EAFF34BF012000205DF808FB00BFDC
:100AF0004DF808EDFFF7E0FF94BF012000205DF8FE
:100B000008FB00BF4DF808EDFFF7CEFF94BF0120B2
:100B100000205DF808FB00BF4DF808EDFFF7C4FFAB
:100B200034BF012000205DF808FB00BF4FEA410CF4
:100B30007FEA6C5C02D150EA013C0AD14FEA430CD7
:100B40007FEA6C5C02D152EA033C02D14FF0000014
:100B500070474FF0010070474FEA410212F5001252
:100B600015D211D56FF47873B3EB625212D94FEAF4
:100B7000C12343F0004343EA505311F0004F23FADE
:100B800002F018BF404270474FF00000704750EA33
:100B9000013005D111F0004008BF6FF000407047F0
:100BA0004FF00000704700BF4FEA4102B2F1E0434E
:100BB00024BFB3F5001CDCF1FE5C0DD901F0004C44
:100BC0004FEAC0024CEA5070B2F1004F40EB830094
:100BD00008BF20F00100704711F0804F21D113F1C0
:100BE0003872BCBF01F00040704741F480114FEAF9
:100BF0005252C2F11802C2F1200C10FA0CF320FA82
:100C000002F018BF40F001004FEAC1234FEAD3239E
:100C100003FA0CFC40EA0C0023FA02F34FEA430308
:100C2000CCE77FEA625307D150EA01331EBF4FF091
:100C3000FE4040F44000704701F0004040F0FE40AC
:100C400040F40000704700BF53B94AB9002908BFFB
:100C500000281CBF4FF0FF314FF0FF3000F072B999
:100C6000ADF1080C6DE904CE00F006F8DDF804E003
:100C7000DDE9022304B070472DE9F047089E0446E1
:100C80008846002B4BD18A42154667D9B2FA82F2C8
:100C90004AB1C2F1200701FA02F320FA07F79540A2
:100CA00047EA030894404FEA154E230CB8FBFEF7C1
:100CB0001FFA85FC0EFB178843EA084307FB0CF17B
:100CC000994209D9EB1807F1FF3080F01B81994256
:100CD00040F21881023F2B445B1AA4B2B3FBFEF032
:100CE0000EFB103344EA034400FB0CFCA44509D975
:100CF0002C1900F1FF3380F00781A44540F20481F4
:100D000002382C4440EA0740A4EB0C0400271EB133
:100D1000D4400023C6E900433946BDE8F0878B4242
:100D200009D9002E00F0EB800027C6E90001384603
:100D30003946BDE8F087B3FA83F7002F47D18B42DD
:100D400002D3824200F2FA80841A61EB030301208D
:100D50009846002EE0D0C6E90048DDE702B9FFDE84
:100D6000B2FA82F2002A40F08F80491B4FEA154EFA
:100D70001FFA85F80127B1FBFEFC230C0EFB1C11AA
:100D800043EA014308FB0CF1994207D9EB180CF137
:100D9000FF3002D2994200F2CD808446591AA3B2A4
:100DA000B1FBFEF00EFB101443EA044408FB00F80C
:100DB000A04507D92C1900F1FF3302D2A04500F25B
:100DC000B6801846A4EB080440EA0C409FE7C7F140
:100DD000200CBB4022FA0CFE4EEA030E01FA07F487
:100DE00020FA0CF521FA0CF34FEA1E482543B3FB19
:100DF000F8F92C0C08FB19331FFA8EFA44EA034366
:100E000009FB0AF49C4202FA07F200FA07F10BD937
:100E10001EEB030309F1FF3080F087809C4240F213
:100E20008480A9F1020973441B1BADB2B3FBF8F037
:100E300008FB103345EA034400FB0AFAA24508D92F
:100E40001EEB040400F1FF336BD2A24569D90238CE
:100E5000744440EA0940A0FB0289A4EB0A044C4513
:100E6000C2464B4654D351D0002E69D0B1EB0A058F
:100E700064EB030404FA0CFCFD40FC404CEA05055D
:100E8000C6E90054002747E7C2F1200320FA03F720
:100E9000954001FA02F021FA03F34FEA154E384368
:100EA000010CB3FBFEF71FFA85F80EFB173341EA7E
:100EB000034107FB08F38B4204FA02F407D96918CF
:100EC00007F1FF3C2FD28B422DD9023F2944CB1A88
:100ED00081B2B3FBFEF00EFB103341EA034100FB8D
:100EE00008F38B4207D9691800F1FF3C17D28B42F7
:100EF00015D902382944C91A40EA07473BE7374663
:100F0000304609E70746E7E61846FBE64145ABD21F
:100F1000B8EB020A69EB0E0201381346A4E76046FB
:100F2000E9E7184695E76746D1E781467CE702384E
:100F30002C4447E7ACF1020C2B442FE7384608E776
:100F40003746E9E6704700BF494B5A6822F4403201
:100F50005A605A6841680A435A600268536823F429
:100F60008073536002685368016943EA0123536048
:100F70000268536823F040735360026853688168C5
:100F80000B4353600268936823F400639360026824
:100F90009368C1680B439360826A364B9A4249D08A
:100FA0000268936823F07063936002689368816AB3
:100FB0000B4393600268936823F040539360026888
:100FC0009368C16A0B4393600268936823F002033D
:100FD000936002689368816943EA41039360036AFE
:100FE000002B32D10268536823F400635360026817
:100FF000D36A23F47003D3620168CB6AC269013AF1
:1010000043EA0253CB620268936823F4007393604F
:1010100002689368016B43EA412393600268936816
:1010200023F48063936002689368416943EA8123F3
:10103000936070470268936823F07063936002685E
:10104000936823F040539360BEE70268536843F40B
:10105000006353600268536823F46043536001687F
:101060004B68426A013A43EA42334B60BFE700BF34
:10107000002301400100000F30B310B50446036C9B
:1010800043B1236C13F0100F0AD00120002384F821
:101090003C3010BD436480F83C3000F0ADFFF0E719
:1010A000236C23F4885323F0020343F002032364E8
:1010B0002046FFF749FF00206064236C23F0030300
:1010C00043F001032364E1E70120704782B000236D
:1010D000019390F83C30012B63D0012380F83C3021
:1010E00003689A6812F0010F13D19A6842F0010266
:1010F0009A60304B1B68304AA2FB03239B0C03EB26
:101100004303019302E0019B013B0193019B002BF0
:10111000F9D10268936813F0010F44D0036C23F4F3
:10112000E06323F0010343F480730364536813F412
:10113000806F05D0036C23F4405343F48053036461
:10114000036C13F4805F19D0436C23F006034364EF
:10115000002380F83C306FF022031360174B5B686C
:1011600013F01F0F0DD103689A6812F0405F1DD174
:101170009A6842F080429A60002015E000234364A0
:10118000E6E703680E4A934201D000200CE09A681B
:1011900012F0405F0CD19A6842F080429A600020C1
:1011A00002E0022000E0002002B070470020FBE7D0
:1011B0000020F9E70C00002083DE1B4300230140E0
:1011C0000020014090F83C30012B19D0012380F819
:1011D0003C300268936823F00103936003689B68C6
:1011E00013F0010F07D1036C23F4885323F001039C
:1011F00043F001030364002380F83C301846704735
:101200000220704703689A6812F4806F03D09B68CD
:1012100013F4807F1CD170B50D46044601F08AFF9F
:10122000064623681A6812F0020F1AD1B5F1FF3F83
:10123000F7D025B101F07EFF801BA842F1D9236CC5
:1012400043F004032364002384F83C3003202DE0A2
:10125000036C43F020030364002380F83C3001203A
:1012600070476FF012021A60236C43F4007323641A
:1012700023689A6812F0405F17D1A269BAB9DA6A96
:1012800012F4700F03D09B6813F4806F11D1236C9C
:1012900023F480732364236C13F4805F0BD1236CDD
:1012A00043F001032364002000E0002070BD002013
:1012B000FCE70020FAE70020F8E7000030B583B033
:1012C0000023019390F83C30012B00F08180012332
:1012D00080F83C300468A36813F0010F13D1A368B1
:1012E00043F00103A3603F4B1C683F4BA3FB043456
:1012F000A40C04EB4404019402E0019C013C019421
:10130000019C002CF9D103689C6814F0010F61D096
:10131000046C24F4E06424F0010444F48074046454
:101320005B6813F4806F05D0036C23F4405343F4DF
:1013300080530364036C13F4805F36D0436C23F056
:101340000603436413460446002280F83C20826B67
:101350002648D063A26B26481064A26B2548D0644F
:1013600022686FF0220010602568686840F0806095
:1013700068602568A86840F48070A86020680A4604
:1013800000F14C01A06B02F01BF81B4B5B6813F0E3
:101390001F0F0DD123689A6812F0405F1DD19A6823
:1013A00042F080429A60002015E000234364C9E7C0
:1013B0002368124A934201D000200CE09A6812F090
:1013C000405F0CD19A6842F080429A60002002E0AF
:1013D000022000E0002003B030BD0020FBE7002029
:1013E000F9E700BF0C00002083DE1B4367140008F0
:1013F000C9140008D5140008002301400020014052
:1014000090F83C30012B28D010B50446012380F819
:101410003C300268936823F00103936003689A6884
:1014200012F0010F04D00020002384F83C3010BDDE
:101430009A6822F480729A60806B01F0FBFF226848
:10144000536823F080635360236C23F4885323F0A4
:10145000010343F001032364E6E7022070470368B9
:10146000D86C7047704708B5836B1A6C12F0500F38
:1014700003D09B6BDB6C984708BD1A6C42F400727A
:101480001A641A68916811F0405F19D19969B9B965
:10149000D16A11F4700F03D0916811F4806F0FD1ED
:1014A000516821F0200151601A6C22F480721A6494
:1014B0001A6C12F4805F03D11A6C42F001021A64B4
:1014C0001846FFF7CFFFD7E708B5806B03F016FC8F
:1014D00008BD704708B5806B40230364436C43F03C
:1014E00004034364FFF7F5FF08BD000030B482B089
:1014F0000023019390F83C30012B00F0B7800123CA
:1015000080F83C300B68092B3ED90568EA689BB22D
:1015100003EB43031E3B072404FA03F322EA03030D
:10152000EB600568EA688C680B8803EB43031E3B9D
:1015300004FA03F31343EB604B68062B3AD80568B3
:101540006A6B03EB8303053B1F2404FA03F322EACF
:1015500003036B6305686A6B4B6803EB8303053B0E
:101560000C8804FA03F313436B630268404B9A42FE
:1015700050D002683E4B9A4255D0002380F83C3050
:10158000184602B030BC704705682A699BB203EB6D
:101590004303072404FA03F322EA03032B610568DB
:1015A0002A698C680B8803EB430304FA03F31343A3
:1015B0002B61C1E70C2B16D805682A6B03EB83035C
:1015C000233B1F2404FA03F322EA03032B63056879
:1015D0002A6B4B6803EB8303233B0C8804FA03F369
:1015E00013432B63C1E70568EA6A03EB8303413BBE
:1015F0001F2404FA03F322EA0303EB620568EA6A94
:101600004B6803EB8303413B0C8804FA03F3134359
:10161000EB62AAE70B68122BABD1164A536843F46E
:1016200080035360A5E70B68103B012BA5D8114A36
:10163000536843F4000353600B68102B9DD10E4B8D
:101640001B6802F1467202F52E3202F28332A2FBCF
:1016500003239B0C03EB83035A00019202E0019BDE
:10166000013B0193019B002BF9D186E7022088E71B
:1016700000200140002301400C000020074B1A69A4
:1016800022F440721A611A6942F004021A611A695E
:1016900042EA002040F4803018617047003C02406C
:1016A00010B449B1012921D0022902D04FF440746D
:1016B00003E04FF4007400E000240E4B196921F49C
:1016C000407119611A6922431A611A6922F0F802FD
:1016D0001A611A6942EAC00040F0020018611A69F2
:1016E00042F480321A615DF8044B70474FF4807405
:1016F000E3E700BF003C0240164B1B6813F4007F79
:1017000010D0144B1A6822F400721A601A6842F45E
:1017100000621A601A6822F400621A601A6842F4C1
:1017200000721A600B4B1B6813F4806F10D0094BCA
:101730001A6822F480621A601A6842F480521A60B1
:101740001A6822F480521A601A6842F480621A60A1
:10175000704700BF003C0240F8B5224B1B7E012BB6
:101760003ED00E4604461F4B01221A764CF25030F2
:1017700002F068F9074670BB4FF0FF33336023680F
:10178000012B16D0A568E368A2681344AB4220D9A8
:10179000217C2846FFF784FF4CF2503002F052F9CA
:1017A000114A136923F0FA031361074680B9013522
:1017B000E9E76168207CFFF761FF4CF2503002F0EE
:1017C00041F90746084A136923F00403136100E056
:1017D0003560FFF791FF034B00221A763846F8BDBB
:1017E0000227FBE7FC050020003C024000B58DB05D
:1017F0001648174B03600023436083604FF6FF7267
:10180000C26003614361012203920493059206932F
:101810000793089309920A930B9303A902F0E1FD41
:1018200050B900230193029301A9084802F047FA36
:1018300038B90DB05DF804FB5A21064802F0BCF936
:10184000EFE76121034802F0B7F9F2E78C030020CB
:1018500000000140F8F9000800B58DB01648174B9C
:1018600003600023436083604FF6FF72C260036130
:101870004361012203920493059206930793089310
:1018800009920A930B9303A902F0ABFD50B9002310
:101890000193029301A9084802F011FA38B90DB07A
:1018A0005DF804FBC921064802F086F9EFE7D02174
:1018B000034802F081F9F2E7E4020020000401404D
:1018C000F8F9000800B589B003681F4A934205D0B3
:1018D0001E4A93421DD009B05DF804FB002301931A
:1018E00002F59C32516C41F001015164526C02F0DE
:1018F00001020192019A4FF4407203920222049273
:10190000059306930123079303A9114802F008FFEA
:10191000E1E70023029302F59A32516C41F0020193
:101920005164526C02F002020292029AC0220392A7
:1019300002220492059306930323079303A9054803
:1019400002F0EEFEC7E700BF0000014000040140C6
:10195000000002400008024082B00368B3F1804FEB
:1019600004D00F4A93420ED002B070470023009378
:101970000C4B1A6C42F001021A641B6C03F0010359
:101980000093009BF0E700230193064B1A6C42F092
:1019900002021A641B6C03F002030193019BE3E74C
:1019A000000400400038024070B586B00368B3F10F
:1019B000804F04D0154A93421AD006B070BD4FF440
:1019C0000043019302260296002403940494012507
:1019D000059501A90E4802F0A3FE08230193029683
:1019E00003940494059501A90A4802F099FEE4E7DE
:1019F0003023019302230293002203920492059361
:101A000001A9044802F08CFED7E700BF00040040A3
:101A1000000002400004024000B58BB020484FF0A7
:101A20008043036000234360836040F21F32C26042
:101A3000036102F0BDFCF8B900230893099308A9DB
:101A4000174802F03CF9E0B96023019300220292AA
:101A50000392059201A9124802F042FDB0B9042296
:101A60000DEB02010E4802F03BFDA0B90C48FFF758
:101A70009BFF0BB05DF804FB71210A4802F09CF853
:101A8000DAE77821074802F097F8DDE78121054879
:101A900002F092F8E3E78621024802F08DF8E5E7CC
:101AA000C8030020F8F9000800B58BB01F48204B90
:101AB0000360002343608360C360036102F078FC2D
:101AC000F8B900230893099308A9184802F0F7F819
:101AD000E0B960230193002202920392059201A9CA
:101AE000124802F0FDFCB0B904220DEB02010F48D0
:101AF00002F0F6FCA0B90D48FFF756FF0BB05DF8F9
:101B000004FB98210B4802F057F8DAE79F210948B7
:101B100002F052F8DDE7A821064802F04DF8E3E7AD
:101B2000AD21044802F048F8E5E700BF3403002087
:101B300000040040F8F9000810B50C461A4B1B4A87
:101B40001A60586000229A6040F2CF71D9601A6121
:101B50005A61184602F02CFCA0B9154960230B60AD
:101B60004C6000238B60CB600B614B618B61042266
:101B70000D4802F0B5FC58B904210B4802F02EFDC7
:101B800060B910BD40F2AD110A4802F015F8E4E763
:101B900040F2B911074802F00FF8EDE74FF4DF719A
:101BA000044802F009F8ECE7340300200004004088
:101BB00070030020F8F9000870B50C46554B602200
:101BC0001A6000229A60DA601A615A619A61B0F56F
:101BD000487F04DA10F5487F03DC4F4801E040F20B
:101BE0001F30B4F5487F04DA14F5487F03DC4A4C13
:101BF00001E040F21F3400283ADB464D6860474E52
:101C000001224FF40041304602F06EFE00224FF4F4
:101C10008041304602F068FE00222946404802F02A
:101C20005FFC002841D1002C45DB3A4D6C603D4CF7
:101C300000224FF40071204602F056FE01224FF4BC
:101C40008071204602F050FE04222946344802F0FA
:101C500047FC00284CD10021314802F0BFFC00288D
:101C60004CD104212E4802F0B9FC00284CD170BDA3
:101C70004042284D6860294E00224FF40041304612
:101C800002F032FE01224FF48041304602F02CFE79
:101C900000222946224802F023FC0028C3D04FF43A
:101CA000F671214801F088FFBDE74FF4FB711E4833
:101CB00001F082FFB7E76442164D6C60194C0122B7
:101CC0004FF40071204602F00FFE00224FF48071A5
:101CD000204602F009FE04222946114802F000FCC9
:101CE0000028B8D040F202210F4801F065FFB2E7AA
:101CF0004FF403710C4801F05FFFACE740F2132191
:101D0000094801F059FFACE740F21721064801F0FD
:101D100053FFACE770030020E1FCFFFF000402402A
:101D2000C803002000080240F8F9000870B5144DFF
:101D300000246C60134E01224FF40041304602F043
:101D4000D3FD01224FF48041304602F0CDFD6C609E
:101D50000D4D01224FF40071284602F0C5FD01220D
:101D60004FF48071284602F0BFFD084D21462846F9
:101D700002F050FC0421284602F04CFC70BD00BF6C
:101D8000700300200004024000080240C803002045
:101D900010B4184C626A18494B6A002060624862AD
:101DA000524212B202FA83F307EE103AB8EEC77A43
:101DB000DFED127A27EE277AF0EE0C6AC7EE267A6C
:101DC0009FED0F7A67EE877A0E4B93ED007A67EE00
:101DD000877A9FED0D7A27EE877A0C4B83ED017A97
:101DE00093ED027A77EE877AC3ED027A5DF8044BC1
:101DF000704700BF00000140000401400000803A2D
:101E0000DB0F49400000002000007A442803002036
:101E100010B504461A481B4B036040F2E733436099
:101E2000002383600922C2600361436102F0C0FAAB
:101E300098B9154960230B604C6000228A60CA6023
:101E40000A614A618A610E4802F04AFB58B90021D2
:101E50000B4802F0C3FB60B910BD4FF41A710B4878
:101E600001F0AAFEE5E74FF41D71084801F0A4FE59
:101E7000EDE740F27921054801F09EFEECE700BF56
:101E8000340300200004004070030020F8F900082B
:101E900000B583B000210191094B1A6B42F4800216
:101EA0001A631B6B03F480030193019B0A463A20DB
:101EB00001F0AAFC3A2001F0DBFC03B05DF804FB62
:101EC0000038024000B585B01548164B036000236A
:101ED00043608360036183610362C362124A82626A
:101EE000C3600122C26103634261FFF7C5F868B9AC
:101EF0000F230093012301930023029369460848AE
:101F0000FFF7F4FA38B905B05DF804FB642107481F
:101F100001F052FEECE76E21044801F04DFEF2E7BD
:101F2000A0040020002001400100000F04FA000876
:101F300000B585B02C482D4B0360002242604FF065
:101F4000807383600123036183610262C262284956
:101F50008162C2600422C26103634361FFF78CF8AF
:101F600040BB02230093012301930023029369469F
:101F70001D48FFF7BBFA10BB032300930223019314
:101F800069461948FFF7B2FAF0B90A230093032310
:101F9000019369461448FFF7A9FAD0B90B230093BF
:101FA0000423019369461048FFF7A0FAB0B905B0C1
:101FB0005DF804FB87210F4801F0FEFDD1E7912178
:101FC0000C4801F0F9FDD7E79A210A4801F0F4FD29
:101FD000DBE7A321074801F0EFFDDFE7AC2105486F
:101FE00001F0EAFDE3E700BF0C04002000210140FE
:101FF0000100000F04FA000870B588B003682E4A8B
:10200000934205D004462D4A934217D008B070BDC4
:10201000002101912A4B5A6C42F480725A645B6C25
:1020200003F480730193019B202303930323049300
:10203000059103A9234802F073FBE7E70025029509
:102040001F4B5A6C42F400725A645B6C03F40073C9
:102050000293029B032603960496059503A919484B
:1020600002F05EFB0C230393049605950DEB030130
:10207000154802F055FB1548154B03604FF00073EF
:1020800043608560C5604FF4806303614FF4006373
:1020900043614FF400538361C5610562456201F0FD
:1020A00029F918B9094BA3639C63AFE7EF210948ED
:1020B00001F082FDF6E700BF002001400021014051
:1020C0000038024000080240000002405405002091
:1020D0004064024004FA0008094B6722DA82542265
:1020E0001A83084BE622DA82074A7521118064229E
:1020F0001A83064B9322DA8278221A83704700BF34
:1021000080040020600400205C04002034050020CE
:102110001A4BB3F900301A4AB2F90020134403EB0A
:10212000D37343F34F03174A1380B2F91820934235
:1021300017DA144B00221A77134BB3F90020B3F9C6
:1021400018309A4211DA104B00221A770F4BB3F96C
:102150000020B3F918309A420BDB0C4B01221A779E
:102160007047084B01221A77E6E7074B01221A77DE
:10217000ECE7064B00221A77704700BF0C050020E1
:10218000EC040020600400208004002034050020BE
:1021900008B5044B00221A80042203490348FFF7C4
:1021A0008DF808BDB40500202C0500200C0400208B
:1021B00010B5074B04221A80064C0022022120464B
:1021C00002F092FB00220121204602F08DFB10BD9F
:1021D000B40500200000024008B5084BB3F90030F8
:1021E000032B00D008BDFFF793FF044B00221A8099
:1021F000042203490348FFF761F8F3E7B405002020
:102200002C0500200C04002010B582B0494BB3F916
:102210000030012B2ED0022B61D00BB102B010BDCB
:102220004548FFF7EDF8454A1188454B198051881C
:10223000598091889980D288DA8001220221414810
:1022400002F052FB00238DF8073005E09DF80730BF
:102250000133DBB28DF807309DF80730DBB2C72BB6
:10226000F4D9344B01221A80042234493248FFF752
:1022700025F8D3E73048FFF7C3F8324C002202219B
:10228000204602F031FB2D4B5A882F494A809B880B
:102290008B802B494888121A2C4802808A889B1A06
:1022A0002B4A138001221146204602F01DFB002319
:1022B0008DF8073005E09DF807300133DBB28DF86B
:1022C00007309DF80730DBB2C72BF4D9194B022237
:1022D0001A80042219491848FEF7F0FF9EE71648B5
:1022E000FFF78EF800220121164802F0FDFA134B89
:1022F0001A8815490A80DB88CB8011490888121A90
:1023000014480280CA889B1A134A138000238DF850
:10231000073005E09DF807300133DBB28DF8073058
:102320009DF80730DBB2C72BF4D9024B03221A8089
:1023300074E700BFB40500200C0400202C05002029
:102340000404002000000240540400200C0500207A
:10235000EC040020800400203405002038B52DED69
:10236000028B00249FED2E8A16E02E48FEF7AEFE6B
:1023700032212C48FEF746FF0028F9D1294D284686
:10238000FFF76DF807EE900AF8EE677A38EE278AC5
:102390002846FEF717FF0134092CE6DDF2EE047A39
:1023A00088EE277ADFED207A87EE278ADFED1F7A25
:1023B00028EE278ADFED1E7A28EE278AF2EE007AD1
:1023C000B4EEE78AF1EE10FA0ADCF1EE0E7AB4EE22
:1023D000E78AF1EE10FA0BDD012001F0CFF902E0FF
:1023E000062001F0CBF9B0EE480ABDEC028B38BDF7
:1023F000F1EE0C7AB4EEE78AF1EE10FA0CDC032071
:1024000001F0BCF9C82000F09BFE072001F0B6F9EE
:10241000C82000F095FEF2E7032001F0AFF9E2E7F3
:1024200000000000A004002000F07F45CDCC4C400F
:1024300033335340F8B505460F4616461C463BE07D
:102440002CB100F077FE069BC01AA04234D32A6854
:10245000536823F0E00353606B68B3F5827F0BD0C1
:10246000AB6AB3F5005F14D0012385F85130002327
:1024700085F85030032027E0AB68B3F5004F02D059
:10248000B3F5806FECD12A68136823F04003136022
:10249000E6E72A68136823F400531B041B0C13603F
:1024A0002A68136843F400531360DDE70123B34245
:1024B00009D0B4F1FF3FC3D12B689B6837EA03030F
:1024C000F4D00023F3E70020F8BD10B582B0044635
:1024D00000920B4600228021FFF7ACFF034610B9A3
:1024E000184602B010BD636D43F0200363650323FB
:1024F000F6E700283BD010B504460023836290F82D
:102500005130002B2ED0022384F8513022681368FA
:1025100023F0400313606368A2681343E268134327
:102520002269134362691343A26902F400721343E0
:10253000E2691343226A1343A16A22680B431360C2
:10254000638B03F00403616A22680B4353602268C3
:10255000D36923F40063D36100206065012384F80C
:10256000513010BD80F8503002F0EAF9CBE701207D
:1025700070472DE9F04184B01E4690F85030012B91
:1025800000F0C88004460D469046012380F8503084
:1025900000F0D0FD074694F85130DBB2012B0AD091
:1025A0000223012284F85120002284F8502018468A
:1025B00004B0BDE8F081002D00F0A480B8F1000F58
:1025C00000F0A280032384F8513000236365256363
:1025D000A4F83480A4F83680A363A387E3876364F8
:1025E0002364A368B3F5004F1BD023681A6812F068
:1025F000400F03D11A6842F040021A60E368B3F555
:10260000006F14D063681BB1E38E9BB2012B3ED1E7
:10261000236815F8012B1A73E38E013B9BB2E38606
:1026200035E02268136843F480431360DDE7636894
:102630001BB1E38E9BB2012B0DD1236835F8022B21
:10264000DA60E38E013B9BB2E38604E0002E5DD0AE
:10265000B6F1FF3F0FD1E38E9BB27BB323689A683C
:1026600012F0020FF2D035F8022BDA60E38E013B54
:102670009BB2E386EFE700F05DFDC01BB042EAD3FA
:1026800003238EE7002E43D0B6F1FF3F0FD1E38E38
:102690009BB29BB123689A6812F0020FF2D015F832
:1026A000012B1A73E38E013B9BB2E386EFE700F048
:1026B00041FDC01BB042EAD3032372E700973346C3
:1026C000012202212046FFF7B5FE08B1032368E787
:1026D0003A4631462046FFF7F8FE034618B120235C
:1026E000636501235DE7A26832B903922268D1686D
:1026F000039192680392039A626D002A3FF451AFEE
:1027000001234EE701234CE701234AE7032348E76F
:10271000032346E702234AE72DE9F04385B09946B3
:102720000C9D90F85030012B00F0108104460F46AC
:102730001646012380F8503000F0FCFC804694F8E7
:102740005130DBB26268012B15D0B2F5827F0AD01E
:102750000223012284F85120002284F850201846D8
:1027600005B0BDE8F083A268002A40F0E780042BA2
:1027700001D00223EDE7002F00F0E280002E00F0F0
:10278000E180B9F1000F00F0DF8094F85130DBB246
:10279000012B2BD000236365A663A4F83E90A4F818
:1027A0003C902763A4F83690A4F8349023646364C3
:1027B00023681A6812F0400F03D11A6842F04002F1
:1027C0001A60E368B3F5006F14D063681BB1E38E41
:1027D0009BB2012B07D1236817F8012B1A73E38EE4
:1027E000013B9BB2E3864FF0010961E0052384F8C9
:1027F0005130CFE763681BB1E38E9BB2012B07D149
:10280000236837F8022BDA60E38E013B9BB2E38644
:102810004FF0010913E0E38F9BB26BB123689A6814
:1028200012F0010F08D0DB6826F8023BE38F013B72
:102830009BB2E3874FF00109B5F1FF3F1CD1E38E56
:102840009BB21BB9E38F9BB2002B55D0B9F1000F9F
:10285000E1D0E38E9BB2002BDDD023689A6812F0A2
:10286000020FD8D037F8022BDA60E38E013B9BB21F
:10287000E3864FF00009CEE700F05CFCA0EB080017
:10288000A842DCD3032364E7E38F9BB26BB12368D8
:102890009A6812F0010F08D0DB683370E38F013BB8
:1028A0009BB2E38701364FF00109B5F1FF3F1BD121
:1028B000E38E9BB213B9E38F9BB2EBB1B9F1000F7A
:1028C000E2D0E38E9BB2002BDED023689A6812F030
:1028D000020FD9D03A781A73E38E013B9BB2E3869C
:1028E00001374FF00009CFE700F024FCA0EB08000F
:1028F000A842DDD303232CE7CDF800802B4601222C
:1029000002212046FFF796FD08B1032321E7424646
:1029100029462046FFF7D9FD034618B120236365F9
:10292000012316E7A268002A7FF413AF03922268FE
:10293000D168039192680392039A0AE7022308E799
:10294000012306E7012304E7012302E7022306E748
:102950002DE9F04182B004460D4617461E464368F5
:10296000B3F5827F19D094F85030012B00F0A2808B
:10297000012384F8503000F0DDFB804694F851309C
:10298000DBB2012B15D00220012384F85130002343
:1029900084F8503002B0BDE8F0818368002BE2D1AA
:1029A000042380F85130009613460A46FFF7B4FE20
:1029B000F0E7002D74D0002F74D0042384F8513038
:1029C00000236365A563A787E7872363A386E38660
:1029D00023646364A368B3F5004F0BD023681A68BF
:1029E00012F0400F03D11A6842F040021A60E36807
:1029F0005BB128E02268136823F480431360EDE79D
:102A0000002E51D0B6F1FF3F10D1E38F9BB2002BC7
:102A100031D023689A6812F0010FF1D01B7B05F8C2
:102A2000013BE38F013B9BB2E387EEE700F082FBC3
:102A3000A0EB0800B042E8D30320A5E7002E35D074
:102A4000B6F1FF3F0FD1E38F9BB2A3B123689A6821
:102A500012F0010FF2D0DB6825F8023BE38F013B57
:102A60009BB2E387EFE700F065FBA0EB0800B04204
:102A7000E9D3032088E76368B3F5827F03D0636DF1
:102A8000B3B9002080E7A368B3F5004F02D0B3F5D7
:102A9000806FF4D12268136823F040031360EEE7DF
:102AA000012071E701206FE703206DE703206BE74A
:102AB000012069E702206DE7002800F0BB8170B5B6
:102AC00082B00446036813F0010F3BD0A74B9B680C
:102AD00003F00C03042B2CD0A44B9B6803F00C03D5
:102AE000082B21D06368B3F5803F4FD0B3F5A02FFA
:102AF00052D09E4B1A6822F480321A601A6822F46F
:102B000080221A606368002B50D000F013FB05464A
:102B1000964B1B6813F4003F14D100F00BFB401BD5
:102B20006428F5D903208AE1904B5B6813F4800F89
:102B3000D8D08E4B1B6813F4003F03D06368002B82
:102B400000F07A81236813F0020F55D0874B9B6801
:102B500013F00C0F3ED0854B9B6803F00C03082B41
:102B600033D0E368002B68D0814B01221A6000F05B
:102B7000E1FA05467D4B1B6813F0020F54D100F0BB
:102B8000D9FA401B0228F5D9032058E1774A136887
:102B900043F480331360B5E7744B1A6842F4802223
:102BA0001A601A6842F480321A60ABE700F0C2FA89
:102BB00005466E4B1B6813F4003FC3D000F0BAFA11
:102BC000401B6428F5D9032039E1684B5B6813F496
:102BD000800FC6D1654B1B6813F0020F04D0E36869
:102BE000012B01D001202AE1604A136823F0F80389
:102BF000216943EAC1031360236813F0080F40D032
:102C0000636963B35B4B01221A6000F093FA0546D7
:102C1000564B5B6F13F0020F33D100F08BFA401B61
:102C20000228F5D903200AE1504A136823F0F8037B
:102C3000216943EAC1031360DEE74D4B00221A60AD
:102C400000F078FA0546494B1B6813F0020FD3D009
:102C500000F070FA401B0228F5D90320EFE0454B45
:102C600000221A6000F066FA0546404B5B6F13F0D5
:102C7000020F06D000F05EFA401B0228F5D90320AF
:102C8000DDE0236813F0040F79D0384B1B6C13F090
:102C9000805F33D100230193344B1A6C42F0805291
:102CA0001A641B6C03F080530193019B0125324B86
:102CB0001B6813F4807F23D0A368012B34D0052B2D
:102CC00038D02A4B1A6F22F001021A671A6F22F0CD
:102CD00004021A67A368002B36D000F02BFA0646D0
:102CE000224B1B6F13F0020F48D100F023FA801B18
:102CF00041F288339842F3D90320A0E00025D6E7BB
:102D00001D4A136843F48073136000F013FA0646FB
:102D1000194B1B6813F4807FCED100F00BFA801B97
:102D20000228F5D903208AE0104A136F43F001030B
:102D30001367CFE70D4B1A6F42F004021A671A6F40
:102D400042F001021A67C5E700F0F4F90646074BA6
:102D50001B6F13F0020F11D000F0ECF9801B41F251
:102D600088339842F3D9032069E000BF003802405D
:102D700000004742800E474200700040E5B9A36959
:102D8000002B5BD0304A926802F00C02082A58D01F
:102D9000022B17D02D4B00221A6000F0CBF904460D
:102DA000294B1B6813F0007F42D000F0C3F9001BD1
:102DB0000228F5D9032042E0234A136C23F0805304
:102DC0001364DCE7214B00221A6000F0B3F90546DA
:102DD0001D4B1B6813F0007F06D000F0ABF9401BC1
:102DE0000228F5D903202AE0E369226A1343626AC4
:102DF00043EA8213A26A5208013A43EA0243E26AB2
:102E000043EA0263104A5360104B01221A6000F03B
:102E100091F904460C4B1B6813F0007F06D100F0BB
:102E200089F9001B0228F5D9032008E0002006E0FC
:102E3000002004E001207047012000E0002002B0E3
:102E400070BD0120FBE700BF003802406000474230
:102E5000264B9B6803F00C03042B44D0082B01D0B5
:102E6000234870472DE9F04B204B5A6802F03F028F
:102E70005B6813F4800F13D01C4B5968C1F38811A1
:102E800000231C48A1FB0001FDF7DEFE174B5B6829
:102E9000C3F3014301335B00B0FBF3F0BDE8F08BFB
:102EA000124B5B68C3F388131E4600275C010025A4
:102EB000E41A65EB0705A90141EA9461A001001B32
:102EC00061EB0501CB0043EA5073C400A01943EB4A
:102ED00007018B0243EA90538402204619460023DF
:102EE000FDF7B2FED2E70348704700BF003802404A
:102EF0000024F400002D3101002800F09D8070B501
:102F000004464F4B1B6803F00F038B4209D2CBB230
:102F10004B4A1370136803F00F038B4201D001205A
:102F200070BD236813F0020F17D013F0040F04D004
:102F3000444A936843F4E0539360236813F0080F06
:102F400004D0404A936843F4604393603D4A9368D9
:102F500023F0F003A068034393600D46236813F049
:102F6000010F32D06368012B21D09A1E012A25D986
:102F7000344A126812F0020F60D032498A6822F097
:102F8000030213438B6000F0D5F806462D4B9B6877
:102F900003F00C036268B3EB820F16D000F0CAF89E
:102FA000801B41F288339842F0D90320B8E7254AC4
:102FB000126812F4003FE0D10120B1E7214A126803
:102FC00012F0007FD9D10120AAE71D4B1B6803F046
:102FD0000F03AB4209D9EAB2194B1A701B6803F010
:102FE0000F03AB4201D001209AE7236813F0040FCE
:102FF00006D0144A936823F4E053E1680B439360CE
:10300000236813F0080F07D00E4A936823F4604337
:10301000216943EAC1039360FFF71AFF094B9B68DC
:10302000C3F30313084AD35CD840084B1860002050
:1030300000F034F8002073E70120704701206FE7AB
:10304000003C02400038024058FA00080C00002002
:10305000014B1868704700BF0C00002008B5FFF74F
:10306000F7FF044B9B68C3F38223034AD35CD84029
:1030700008BD00BF0038024068FA000808B5FFF735
:10308000E7FF044B9B68C3F34233034AD35CD84049
:1030900008BD00BF0038024068FA000810B50446B9
:1030A0000E4B18784FF47A73B3FBF0F30C4A1068A8
:1030B000B0FBF3F000F0E8FB68B90F2C01D9012058
:1030C0000AE0002221464FF0FF3000F09DFB054B47
:1030D0001C60002000E0012010BD00BF04000020A3
:1030E0000C0000200800002008B50B4B1A6842F4C1
:1030F00000721A601A6842F480621A601A6842F418
:1031000080721A60032000F06DFB0020FFF7C6FFFD
:1031100001F0D6FA002008BD003C0240034A1168C5
:10312000034B1B780B441360704700BFB8050020A9
:1031300004000020014B1868704700BFB80500204C
:1031400038B50446FFF7F6FF0546B4F1FF3F02D05D
:10315000044B1B781C44FFF7EDFF401BA042FAD341
:1031600038BD00BF0400002008B50B480B4B0360BE
:103170004FF41653436000238360C36003610C2245
:1031800042618361C36100F08EFF00B908BD422136
:10319000034800F011FDF9E7BC050020004800409D
:1031A00010FA00080268124B9A4200D0704700B52E
:1031B00087B0002300930F4B1A6C42F480221A64EC
:1031C0001B6C03F480230093009B4FF44063019336
:1031D00002230293012303930323049307230593FC
:1031E00001A9054801F09CFA07B05DF804FB00BF97
:1031F00000480040003802400004024030B4056836
:103200002C6824F480242C60046863608368402B5D
:1032100005D0036899600368DA6030BC70470368C2
:103220009A600368D960F8E70268D3B2103B0B4993
:10323000A1FB03131B090A49C95CC165032B06D80E
:1032400022F47F7222F003028265806D704722F4BF
:103250007F7222F0030204328265F6E7ABAAAAAAC3
:103260001CFA0008836A826992B9012B0AD01BB14B
:10327000022B01D000207047C36A13F0807F2CD14D
:1032800000207047C36AB3F1C07F28D00020704788
:10329000B2F5005F05D0022B29D9032B15D00020F1
:1032A0007047032B03D8DFE803F01C041C0A00203E
:1032B0007047C36A13F0807F15D100207047C36A3E
:1032C000B3F1C07F11D000207047C36A13F0807F34
:1032D00001D0012070470020704701207047012075
:1032E000704701207047012070470120704701207E
:1032F0007047000070B50446FFF71CFF002C5BD040
:103300000546002384F83430022384F835302268DF
:10331000136823F00103136023681A6812F0010F89
:103320000AD0FFF707FF401B0528F5D92023636566
:10333000032084F8350070BD1A6820481040616889
:10334000A2680A43E1680A4321690A4361690A43A2
:10335000A1690A43E1690A43216A0A430243616A97
:1033600004291ED01A602668756925F00705636A6E
:103370001D43042B07D1A36A1D43E36A1BB12046FA
:10338000FFF770FF90B975612046FFF74DFFE26DC2
:103390003F239340836000206065012384F835302B
:1033A000C9E7E16A206B01430A43DBE74023636519
:1033B000012084F83500BEE70120BCE73F8010F013
:1033C00038B5856D90F83440012C31D0012480F857
:1033D000344090F83540E4B2012C04D0002380F84A
:1033E0003430022038BD0446022084F83500002025
:1033F00060652046FFF702FFE26D3F239340AB601C
:103400002268136843F0160313602268536943F07F
:1034100080035361236C23B12268136843F00803CF
:1034200013602268136843F0010313600020D9E79A
:103430000220D7E770B50446866DFFF77BFE94F84F
:103440003530DBB2022B06D080236365002384F87D
:103450003430012070BD05462268136823F016033E
:1034600013602268536923F080035361236CE3B136
:103470002268136823F0080313602268136823F09E
:103480000103136023681B6813F0010F11D0FFF7CD
:1034900051FE401B0528F5D920236365002384F8DD
:1034A0003430032084F83500D4E7A36C002BDFD13F
:1034B000E3E7E26D3F239340B360002084F83400DB
:1034C000012384F83530C5E7F0B583B00446002306
:1034D0000193724B1D68724BA3FB0535AD0A876DD6
:1034E0003E68C26D08239340334210D003681A68C7
:1034F00012F0040F0BD01A6822F004021A60C26D99
:1035000008239340BB60436D43F001034365E26DC4
:1035100001239340334209D02268526912F0800F90
:1035200004D0BB60636D43F002036365E26D042366
:103530009340334209D02268126812F0020F04D07F
:10354000BB60636D43F004036365E26D1023934039
:10355000334224D02268126812F0080F1FD0BB60DB
:1035600023681A6812F4802F0DD01B6813F4002F03
:1035700004D1236C9BB12046984710E0A36C73B133
:10358000204698470BE01A6812F4807F03D11A682E
:1035900022F008021A60236C0BB120469847E26DB6
:1035A00020239340334255D02268126812F0100F46
:1035B00050D0BB6094F83530DBB2052B0ED02368B9
:1035C0001A6812F4802F33D01B6813F4002F2AD10D
:1035D000636C002B3ED0204698473BE0226813687E
:1035E00023F0160313602268536923F080035361AC
:1035F000236CA3B12268136823F008031360E26D03
:103600003F239340BB60002384F83430012384F8C7
:103610003530236D002B3FD0204698473CE0A36C0B
:10362000002BE7D1EBE7E36BA3B12046984711E00D
:103630001A6812F4807F09D11A6822F010021A6009
:10364000002384F83430012384F83530E36B0BB168
:1036500020469847636DFBB1636D13F0010F17D0DF
:10366000052384F835302268136823F001031360C2
:10367000019B01330193AB4204D823681B6813F00C
:10368000010FF5D1002384F83430012384F835305C
:10369000E36C0BB12046984703B0F0BD0C0000204E
:1036A000B5814E1B2DE9F0418AB0002401942F4BC7
:1036B0001A6B42F004021A631A6B02F004020192C0
:1036C000019A02941A6B42F080021A631A6B02F09C
:1036D00080020292029A03941A6B42F001021A636A
:1036E0001A6B02F001020392039A04941A6B42F0DF
:1036F00002021A631B6B03F002030493049BDFF8BE
:103700007880224644F21031404601F0EDF8184F1F
:1037100022461321384601F0E7F8164E22464DF2B4
:103720008031304601F0E0F844F210330593012572
:1037300006950794089405A9404600F0F1FF13236D
:10374000059306950794089405A9384600F0E8FF0C
:103750004DF28033059306950794089405A93046E9
:1037600000F0DEFF0AB0BDE8F08100BF0038024083
:1037700000000240000402400008024038B5044640
:103780000B4D00F004024FF48071284601F0ACF8B4
:1037900004F002024FF48041064801F0A5F804F05D
:1037A00001024FF40071284601F09EF838BD00BFB9
:1037B000000402400008024010B50446C24302F073
:1037C00002021021054801F08FF884F0010202F096
:1037D00001028021024801F087F810BD000002407C
:1037E00000040240074AD36823F4E0631B041B0C67
:1037F000000200F4E060184340F0BF6040F4003085
:10380000D060704700ED00E030B4174BDB68C3F3C5
:103810000223C3F10704042C28BF04241D1D062D18
:1038200018D9033B4FF0FF3505FA04F421EA0401EF
:10383000994005FA03F322EA0303194300280BDB3E
:103840000901C9B200F1604000F5614080F8001341
:1038500030BC70470023E5E700F00F000901C9B252
:10386000024B1954F4E700BF00ED00E014ED00E056
:1038700000F01F02400901239340024A42F8203021
:10388000704700BF00E100E00138B0F1807F0AD24C
:10389000064B5860064AF02182F8231000209860F9
:1038A00007221A6070470120704700BF10E000E057
:1038B00000ED00E0042805D0054A136823F0040356
:1038C00013607047024A136843F0040313607047A3
:1038D00010E000E0704708B5FFF7FCFF08BD0000EE
:1038E00010B409490C6924F440740C610C6944F467
:1038F00040740C610C6944F001040C610260436087
:103900005DF8044B704700BF003C0240074B1A694A
:1039100022F440721A611A6942F400721A611A693B
:1039200042F001021A610160704700BF003C024092
:10393000074B1A6922F440721A611A6942F48072C4
:103940001A611A6942F001021A610180704700BFD2
:10395000003C0240064B1A6922F440721A611A694F
:103960001A611A6942F001021A610170704700BFC2
:10397000003C0240204BDB6813F0100F07D01F4AB9
:10398000D36943F01003D3611B4B1022DA601A4B4A
:10399000DB6813F0200F07D0184AD36943F00803FF
:1039A000D361154B2022DA60134BDB6813F0400F14
:1039B00007D0124AD36943F00403D3610E4B40226F
:1039C000DA600D4BDB6813F0800F07D00B4AD36928
:1039D00043F00203D361084B8022DA60064BDB68B8
:1039E00013F0020F07D0054AD36943F02003D361D7
:1039F000014B0222DA607047003C0240FC050020C7
:103A0000094B1B69002B01DB00207047064B074A5E
:103A10005A6002F188325A601B69002B01DB0020DA
:103A200070470120704700BF003C024023016745FA
:103A3000034A136943F0004313610020704700BF3D
:103A4000003C024038B50446154B0022DA61FFF70E
:103A500071FB0546134BDB6813F4803F0AD0B4F1C9
:103A6000FF3FF7D0CCB1FFF765FB401BA042F1D977
:103A700003200DE00B4BDB6813F0010F02D0094B64
:103A80000122DA60074BDB6813F0F20F01D100204E
:103A900038BDFFF76FFF0120FAE70320F8E700BF0A
:103AA000FC050020003C0240F8B51D4C247E012C92
:103AB00034D01F4616460D460446194B01221A768D
:103AC0004CF25030FFF7BEFF014698B9BCB1012C53
:103AD0001AD0022C1DD032463B462846FFF700FF85
:103AE0004CF25030FFF7AEFF01460E4A136923F047
:103AF000010313610A4B00221A760846F8BDF1B2A1
:103B00002846FFF727FFEBE7B1B22846FFF710FF83
:103B1000E6E731462846FFF7F9FEE1E70221ECE748
:103B2000FC050020003C024000B583B002A901F86A
:103B3000010D01231A46034800F0E4FA03B05DF8D2
:103B400004FB00BFBC05002008B5174B1B68002113
:103B5000986809F0B1FF1821144800F08FFD182172
:103B6000134800F08BFDFEF7B7FA00F093FF4FF417
:103B700096715B20FDF7E0FFC820FFF7E1FA002116
:103B80000A20FDF7D9FFFEF7E9FB10EE100AFCF75B
:103B9000DBFC02460B46074809F0FEFE4FF47A7044
:103BA000FFF7CEFA08BD00BFC00000208C03002044
:103BB000E402002024FA0008FEE7000000B595B0FA
:103BC00000210191294B1A6C42F080521A641B6C3F
:103BD00003F080530193019B0291254B1A6842F434
:103BE00080421A601B6803F480430293029B012306
:103BF00008934FF48033099302230E934FF480020D
:103C00000F920A22109250221192129304231393BE
:103C100008A8FEF751FF08BB0F230393022104916C
:103C2000002305934FF480530693079303A8FFF7EF
:103C300063F9B8B9FFF70CFA0E4BA3FB003080090B
:103C4000FFF722FE0420FFF735FE002211464FF059
:103C5000FF30FFF7D9FD15B05DF804FBA52106483C
:103C6000FFF7AAFFB3210448FFF7A6FF0038024080
:103C700000700040D34D621030FA000808B5FFF71D
:103C800033FAFFF79BFFFFF70DFDFEF701F9FEF793
:103C900019F9FEF74DF900F02DFEFDF7A7FDFDF730
:103CA000BBFEFDF701FFFDF7D7FDFFF75DFAFFF75C
:103CB0004BFF01F06DF840B202F0ECF8F9E790F834
:103CC0003830012B22D030B4012280F83820022372
:103CD00080F839300468636823F070036360046817
:103CE00063680D682B4363600468A36823F0800356
:103CF000A3600468A36849680B43A36080F8392077
:103D0000002380F83830184630BC704702207047D6
:103D10002DE9F843044601680A6922F44052C36859
:103D200013430B610168CA6822F4164222F00C02A8
:103D300083680069034360690343E06903431343F5
:103D4000CB6021684A6922F44072A36913434B6136
:103D5000E369B3F5004F60D02368B84A934200F09E
:103D6000148102F58062934200F00F81FFF776F92B
:103D700000EB800000EB80006568AD00B0FBF5F55E
:103D8000AF4FA7FB05356D092E01FFF767F900EB73
:103D9000800000EB80006568AD00B0FBF5F9FFF72F
:103DA0005DF900EB800000EB80006568AD00B0FBC2
:103DB000F5F5A7FB05356D094FF0640808FB15956F
:103DC0002D013235A7FB05356D0905F0F0053544A9
:103DD000FFF744F900EB800000EB80006668B60056
:103DE000B0FBF6F6FFF73AF900EB800000EB80003D
:103DF00063689B00B0FBF3F0A7FB0030400908FBB1
:103E000010684FEA081808F13208A7FB0837C7F313
:103E1000431723682F449F600DE12368874A93422C
:103E20005BD002F58062934257D0FFF717F900EBA1
:103E3000800000EB800065686D00B0FBF5F5804FF9
:103E4000A7FB05356D092E01FFF708F900EB80008F
:103E500000EB800065686D00B0FBF5F9FFF7FEF838
:103E600000EB800000EB800065686D00B0FBF5F5AD
:103E7000A7FB05356D094FF0640808FB1595ED00AB
:103E80003235A7FB05356D096D0005F4F87535442D
:103E9000FFF7E4F800EB800000EB80006668760036
:103EA000B0FBF6F6FFF7DAF800EB800000EB8000DD
:103EB00063685B00B0FBF3F3A7FB03235B0908FB1C
:103EC00013684FEAC80808F13208A7FB0837C7F3A0
:103ED000421723682F449F60ADE0FFF7CFF800EB57
:103EE000800000EB800065686D00B0FBF5F5544F75
:103EF000A7FB05356D092E01FFF7C0F800EB800028
:103F000000EB800065686D00B0FBF5F9FFF7B6F8CF
:103F100000EB800000EB800065686D00B0FBF5F5FC
:103F2000A7FB05356D094FF0640808FB1595ED00FA
:103F30003235A7FB05356D096D0005F4F87535447C
:103F4000FFF79CF800EB800000EB800066687600CD
:103F5000B0FBF6F6FFF792F800EB800000EB800074
:103F600063685B00B0FBF3F3A7FB03235B0908FB6B
:103F700013684FEAC80808F13208A7FB0837C7F3EF
:103F8000421723682F449F6055E0FFF777F800EB56
:103F9000800000EB80006568AD00B0FBF5F5284FB0
:103FA000A7FB05356D092E01FFF768F800EB8000CF
:103FB00000EB80006568AD00B0FBF5F9FFF75EF837
:103FC00000EB800000EB80006568AD00B0FBF5F50C
:103FD000A7FB05356D094FF0640808FB15952D0109
:103FE0003235A7FB05356D0905F0F0053544FFF7BF
:103FF00045F800EB800000EB80006668B600B0FB7F
:10400000F6F6FFF73BF800EB800000EB80006368FA
:104010009B00B0FBF3F0A7FB0030400908FB1068E1
:104020004FEA081808F13208A7FB0837C7F343170F
:1040300023682F449F60BDE8F88300BF0010014053
:104040001F85EB512DE9F04105460F46164698466F
:10405000069C2B681B6837EA03030CBF012300236F
:10406000B3421DD1B4F1FF3FF3D02CB1FFF762F89A
:10407000A0EB0800A042ECD92A68D36823F4D073DF
:10408000D3602A68536923F001035361202385F824
:10409000393085F83A30002385F83830032000E0C5
:1040A0000020BDE8F08158B310B5044690F83930CF
:1040B0000BB3242384F839302268D36823F40053E7
:1040C000D3602046FFF724FE2268136923F490434F
:1040D00013612268536923F02A0353612268D3686D
:1040E00043F40053D3600020E063202384F8393088
:1040F00084F83A3010BD80F83830FFF753F8D8E72D
:10410000012070472DE9F04182B01E4690F8393009
:10411000DBB2202B55D104460D469046002955D0E0
:10412000002A55D090F83830012B53D0012380F865
:1041300038300023C363212380F83930FEF7FAFFBB
:104140000746A4F82480A4F8268010E000963B4699
:10415000002280212046FFF775FF00283CD12B88E4
:104160002268C3F3080353602369C3B90235E38CA3
:104170009BB2B3B1E38C013B9BB2E384A368B3F57C
:10418000805FE3D000963B46002280212046FFF767
:1041900059FF18BB2A7823685A600135E7E70135D3
:1041A000E5E700963B46002240212046FFF74AFF04
:1041B0000346A8B9202284F83920002284F8382048
:1041C00000E00223184602B0BDE8F0810123F9E7C0
:1041D0000123F7E70223F5E70323F3E70323F1E7DE
:1041E0000323EFE770B4036A23F001030362036A59
:1041F0004268846924F073040D6845EA040623F0DC
:1042000002048B6823430C4DA84202D00B4CA04201
:104210000BD123F00803CD682B4323F0040322F4D1
:1042200040724D6915438A692A43426086614A6833
:104230004263036270BC704700000140000401400B
:1042400030B4036A23F480730362036A4268C4696A
:1042500024F073040D682C4323F400738D6843EA43
:1042600005230E4DA84203D005F58065A8420ED166
:1042700023F40063CD6843EA052323F4806322F42A
:1042800040524D6942EA05128D6942EA05124260C8
:10429000C4614A68C263036230BC704700000140D9
:1042A00030B4036A23F480530362036A4468C2692A
:1042B00022F4E6420D6842EA052223F400538D6899
:1042C00043EA0533094DA84203D005F58065A842AD
:1042D00004D124F480444D6944EA85144460C261E9
:1042E0004A680264036230BC704700BF00000140AE
:1042F00003682E4A904212D0B0F1804F0FD0A2F541
:104300007C4290420BD002F58062904207D002F5C9
:104310008062904203D002F57842904203D123F0AC
:1043200070034A681343214A90422AD0B0F1804F6B
:1043300027D0A2F57C42904223D002F580629042C1
:104340001FD002F5806290421BD002F57842904265
:1043500017D002F57052904213D002F5806290425D
:104360000FD002F5806290420BD0A2F598329042B5
:1043700007D002F58062904203D002F5806290423D
:1043800003D123F44073CA68134303608B68C3628C
:104390000B688362054B984203D003F58063984213
:1043A00001D10B69036301234361704700000140A1
:1043B000A8B110B5044690F839305BB1022384F8F7
:1043C0003930211D2068FFF793FF012384F839302D
:1043D000002010BD80F83830FDF7BEFAEEE701206E
:1043E0007047002847D0F8B505460C4690F839309C
:1043F000002B3BD0022385F83930294651F8042B95
:10440000936823F0070393602868FFF771FF29681A
:104410008A688E690F6A2068104326F4407626F079
:104420000306A268A36942EA0323334323F47C43CF
:1044300023F0FC03E668E26946EA02261E43226A8C
:104440001303226943EA0213334327F0AA07626881
:10445000646942EA04123A43886029688B612B68D8
:104460001A62012385F839300020F8BD80F8383011
:10447000FDF728FABEE701207047000030B4036A58
:1044800023F010030362036A4468826922F4E6425F
:104490000D6842EA052223F020038D6843EA0513E4
:1044A0000E4DA84203D005F58065A8420ED123F039
:1044B0008003CD6843EA051323F0400324F44064ED
:1044C0004D6944EA85048D6944EA8504446082614B
:1044D0004A688263036230BC704700BF000001403D
:1044E00038B590F83830012B66D00D4604460123CC
:1044F00080F83830022380F839300C2A1AD8DFE8E7
:1045000002F0071919192019191934191919470036
:104510000068FFF767FE2268936943F00803936120
:104520002268936923F004039361226893692969DF
:104530000B439361012384F83930002084F838005C
:1045400038BD0068FFF79AFF2268936943F400635F
:1045500093612268936923F480639361226893696D
:10456000296943EA01239361E4E70068FFF768FEE5
:104570002268D36943F00803D3612268D36923F02A
:104580000403D3612268D36929690B43D361D1E75E
:104590000068FFF785FE2268D36943F40063D361A6
:1045A0002268D36923F48063D3612268D3692969BF
:1045B00043EA0123D361BDE70220C1E710B4012320
:1045C00003FA01F4036A23EA04030362036A8A40DC
:1045D000134303625DF8044B7047000010B50446B6
:1045E00001220068FFF7EAFF2368094A934203D0DB
:1045F00002F58062934203D15A6C42F400425A643D
:104600002268136843F001031360002010BD00BF4F
:104610000000014010B5044600220068FFF7CEFFFD
:104620002368154A934217D002F58062934213D053
:104630002368196A41F21112114208D1196A40F235
:104640004442114203D11A6822F001021A60012388
:1046500084F83930002010BD196A41F2111211425C
:10466000E6D1196A40F244421142E1D15A6C22F477
:1046700000425A64DCE700BF0000014010B5044668
:1046800061B1042916D0012200210068FFF796FFCE
:10469000012204212068FFF791FF04E0012200219C
:1046A0000068FFF78BFF2268136843F00103136073
:1046B000002010BD012204210068FFF77FFFF2E710
:1046C00008B50320FFF78EF8002211466FF00B00AB
:1046D000FFF79AF8002211466FF00A00FFF794F8EE
:1046E000002211466FF00900FFF78EF800221146F4
:1046F0006FF00400FFF788F8002211466FF0030006
:10470000FFF782F8002211466FF00100FFF77CF8F6
:10471000002211464FF0FF30FFF776F808BD000089
:1047200000230F2B00F2D780F0B482B039E00722CB
:1047300000E00022B2403A430234674E46F824209B
:10474000664A1468EA4302EA04064F6817F4803F99
:1047500001D045EA0406614C2660646802EA04065A
:104760004F6817F4003F01D045EA04065B4C6660D1
:10477000A46802EA04064F6817F4801F01D045EAD6
:104780000406564CA660E46822404E6816F4001FEA
:1047900001D045EA0402514CE26001330F2B00F2D4
:1047A000978001229A400C6804EA0205AA42F4D1DB
:1047B0004C68022C01D0122C10D1DE08083650F8BB
:1047C00026C003F00704A7000F24BC402CEA040C09
:1047D0000C69BC4044EA0C0440F8264004685F00C1
:1047E0000326BE40F64306EA040C4C6804F00304BA
:1047F000BC4044EA0C0404604C6804F1FF3CBCF18A
:10480000010F03D9112C01D0122C10D1846806EAB3
:10481000040CCC68BC4044EA0C048460446824EA7C
:1048200002024C68C4F300149C4014434460C26804
:1048300016408A68BA403243C2604A6812F0805F0C
:10484000ABD000220192264A546C44F48044546454
:10485000526C02F480420192019A9C08A61C1E4AE6
:1048600052F8267003F0030296000F22B24027EAA6
:1048700002071C4A90423FF45CAF02F5806290420E
:104880001AD002F58062904218D002F58062904200
:1048900016D002F58062904214D002F580629042F8
:1048A00012D002F58062904210D002F580629042F0
:1048B0003FF43DAF08223DE701223BE7022239E702
:1048C000032237E7042235E7052233E7062231E7E2
:1048D00002B0F0BC7047704700380140003C014016
:1048E000003802400000024012B90904816170479B
:1048F0008161704708B50F480F4B03604FF4827316
:10490000436000238360C360036143614FF400721E
:1049100082612022C2610362436283620A23C3620E
:10492000FDF7E7FD00B908BD6D210448FFF744F924
:10493000F9E700BF34060020003001403CFA0008CF
:104940000268114B9A4200D0704700B587B0002131
:10495000009103F584335A6C42F480525A645B6CC4
:1049600003F480530093009BE023019302230293FE
:104970000391032304930523059301A90348FFF73B
:10498000CFFE07B05DF804FB00300140000002409C
:1049900030B583B00446114D00224FF480512846B3
:1049A000FFF7A2FF64F07F0402A901F8014D0C4C4F
:1049B000642301222046FDF7DCFD642301220DF172
:1049C00006012046FDF7C4FF01224FF4805128461E
:1049D000FFF78AFF9DF8060003B030BD00040240D7
:1049E0003406002030B583B00446134D00224FF446
:1049F00080512846FFF778FF64F07F0402A901F890
:104A0000014D0E4C642301222046FDF7B2FD6423C4
:104A100001220DF106012046FDF79AFF9DF80640A0
:104A2000240224B201224FF480512846FFF75CFF94
:104A3000204603B030BD00BF000402403406002011
:104A400070B584B08DF8071000F07F0004AC04F856
:104A5000010D0E4D00224FF480512846FFF744FF10
:104A60000B4E6423012221463046FDF782FD64236C
:104A700001220DF107013046FDF77BFD01224FF4C5
:104A800080512846FFF730FF04B070BD000402409B
:104A90003406002008B5002002E07520FFF778FFFB
:104AA0007028FAD101460B4808F076FF00216B20F0
:104AB000FFF7C6FF00211A20FFF7C2FF18211B20B5
:104AC000FFF7BEFF10211C20FFF7BAFF024B0022A8
:104AD0001A6008BD48FA00083006002010B54720CB
:104AE000FFF780FF04464820FFF752FF00B2204343
:104AF00000B2024B1C8A001B00B210BD8C060020C5
:104B000010B54720FFF76EFF04464820FFF740FF2F
:104B100000B204430C4B9B89B3F5806F09D30A4A5A
:104B20001369002B0DDB9B121361084B00221A70D6
:104B300010BD24B2044A11690C44146101339381FD
:104B4000F6E703F2FF33EEE78C0600201C06002098
:104B500008B50F4B1B7813B1FFF7D2FF08BDFFF765
:104B6000BDFF07EE900AF8EEE76A9FED0A7AC6EEFF
:104B7000877A094BC3ED007A9FED087A67EE877A52
:104B800093ED017A77EE277AC3ED017AE6E700BF6D
:104B90001C060020000084418C0600206F12833A1E
:104BA00010B54520FFF71EFF04464620FFF7F0FE34
:104BB000204307EE900AF8EEE77ADFED046A87EE0D
:104BC000A67A034B83ED007A10BD00BF000084413C
:104BD0002C06002038B52DED028B3B20FFF702FF9D
:104BE00004463C20FFF7D4FE204307EE900AF8EE7F
:104BF000E77A9FED158A87EE887A144D85ED007A65
:104C00003D20FFF7EFFE04463E20FFF7C1FE2043A4
:104C100007EE900AF8EEE77A87EE887A85ED017A5A
:104C20003F20FFF7DFFE04464020FFF7B1FE2043A0
:104C300007EE900AF8EEE77A87EE887A85ED027A39
:104C4000BDEC028B38BD00BF0000D1432006002020
:104C5000044B00221A619A81034A0121117000223B
:104C60005A6070478C0600201C0600200F49D1F8BE
:104C7000883043F47003C1F888300D4B1A6842F055
:104C800001021A60002098601A6822F0847222F4EF
:104C900080321A60074A5A601A6822F480221A6029
:104CA000D8604FF000638B60704700BF00ED00E0FC
:104CB00000380240103000247047FEE7FEE7FEE7B0
:104CC000FEE770477047704708B5FEF727FAFEF712
:104CD00002FEFFF73DFFFFF763FFFFF77BFFFDF7E6
:104CE0007BFAFDF755F805F04BF908BD08B5024809
:104CF000FEF7EAFB08BD00BF5405002008B5FDF72C
:104D000083FA08BD70B50D461646002404E0AFF3E3
:104D10000080287001340135B442F8DB304670BDA4
:104D200070B51646002405E04D1C0878FEF7FCFE21
:104D300001342946B442F7DB304670BD08B503465E
:104D40000B4A126842B10A4A106803446A46934209
:104D500006D8074A136008BD054A06491160F2E704
:104D600008F080F90C2303604FF0FF30F3E700BF39
:104D7000AC020020E8A800204FF0FF3070474FF44D
:104D800000534B600020704701207047002070479F
:104D900038B505F055FA524B00229A60002425469A
:104DA00050E0504B93ED007ADFED4F7AB4EEE77AA6
:104DB000F1EE10FA65DD013D6DB262E000256FF0A5
:104DC000090000FB05F04FF49671AA30FCF7B4FE21
:104DD0006420FEF7B5F900210A20FCF7ADFE4FF480
:104DE000FA70FEF7ADF9414B93ED027AF3EE047AD7
:104DF000B4EEE77AF1EE10FA4BDD102C47D0043414
:104E0000E4B23A4B00229A60354B93ED027AF3EE0E
:104E10000E7AB4EEE77AF1EE10FA4DDC3448A0FBDE
:104E20000430231A00EB53008008C0EBC000201AA6
:104E3000C0B2FEF7A3FCE8B2FEF7BEFC29192D486C
:104E400008F0AAFD274B93ED007ADFED277AB4EE48
:104E5000E77AF1EE10FA08DC93ED007ADFED267ABE
:104E6000B4EEE77AF1EE10FABDD51E4B93ED007A61
:104E7000DFED217AB4EEE77AF1EE10FA91D5013543
:104E80006DB2032D9ADC002D99DA032597E70024F3
:104E9000B7E7164B93ED027AFBEE047AB4EEE77AAD
:104EA000F1EE10FAB0D52CB1043CE4B20F4B002265
:104EB0009A60A9E71024F9E74FF496714C20FCF7AB
:104EC0003BFE6420FEF73CF900210A20FCF734FE8B
:104ED0004FF4FA70FEF734F92C44E0B238BD00BF4D
:104EE000200600202C060020000096432803002006
:104EF0002549922470FA0008000096C310B582B0CC
:104F0000FDF746F92CE0002280212D48FFF7ECFC4C
:104F10002FE0002210212B48FFF7E6FC32E00020B2
:104F2000FEF72CFC284BB3F90010284BB3F90020F6
:104F3000274BB3F900302748B0F90000264CB4F9EC
:104F4000004001940090254808F026FD244B93ED85
:104F5000007ADFED247AB4EEE77AF1EE10FA19DC8C
:104F60001D4B1B7F012BCED0012280211448FFF75F
:104F7000BBFC154B1B7F012BCBD00122102111480C
:104F8000FFF7B2FC124B1B7F012BC8D00720FEF7A6
:104F9000F5FBC7E7FDF70CF94FF496714C20FCF7D1
:104FA000CBFD4FF49670FEF7CBF800210A20FCF7FA
:104FB000C3FD4FF4FA70FEF7C3F802B010BD00BF96
:104FC0000004024000000240800400200C05002084
:104FD00060040020EC0400203405002090FA000852
:104FE000200600200000704210B50446FDF7D0F8FE
:104FF000254B1B7F012BFBD14FF496714C20FCF706
:105000009BFD6420FEF79CF800210A20FCF794FD2C
:105010000720FEF7B3FB0020FEF7CEFB41F28830FD
:10502000FEF78EF8FFF714FE4FF49660FEF788F84F
:10503000E4B19FED161AF2EE070AB1EE000A05F090
:1050400037F9B7EE001AF3EE050A9FED110A05F0E5
:105050003FF90320FCF7DCFE40F6B830FEF770F8AD
:1050600005F0EEF80B4B01221A7010BD4FF496714B
:105070004C20FCF761FD6420FEF762F800210A2055
:10508000FCF75AFDECE700BF6004002000000000C0
:105090009A99993F52A3002010B49DF80C40032C1C
:1050A0000ED8DFE804F002281C10194C247F04708D
:1050B0001848007F08701849097F117000221A7083
:1050C0005DF8044B7047124C247F0C701149097F26
:1050D0001970114B1B7F037000231370F0E70C4C09
:1050E000247F1C700B4B1B7F13700B4B1B7F0B70B3
:1050F00000230370E4E7064C247F1470054A127FF6
:105100000270054A127F1A7000230B70D8E700BFA7
:10511000600400203405002080040020F0B5CDB0EC
:1051200000248DF81E408DF81C4001258DF81D507F
:105130002AA805F0B3FC08A805F0DCFC8DF81B409C
:10514000984B1D70984B1C70984B03F1100292E81D
:1051500003008DE803000FCB04F02EFB2046FFF781
:1051600043FF00F0D7FF81E09DF81D109DF81C0063
:1051700006F0C2F8FF2840F0CE8007992AA805F073
:10518000B5FEC8E09DF81D20894909788A4240F0A3
:10519000DB809DF81B10002940F0D6809DF81E1082
:1051A0000291019200930DF11A030DF1190206A963
:1051B0000DF11700FFF770FF9DF818309DF81720CC
:1051C0009DF81A1001919DF81910009107A92AA8BD
:1051D00005F0C4FB9DF818309DF817209DF81A10B3
:1051E00001919DF81910009107A908A805F003FC8A
:1051F00001F0E0F800246F4B1C7001238DF81B3088
:105200004FF47A70FDF79CFF882208A96A4B186852
:1052100007F0DFFE4FF4FA60FDF792FF4FF496714E
:105220005B20FCF789FCC820FDF78AFF21460A2095
:10523000FCF782FC614B1B7F53B907A9204605F0A0
:105240008DFC5C4B01221A70204600F09DFF7BE034
:1052500007A9042005F082FC0120564B187000F0CD
:1052600093FF71E09DF81B30022B79D000238DF85D
:1052700017308DF818308DF819308DF81A309DF8E8
:105280001E3002939DF81D3001939DF81C30009351
:105290000DF11A030DF1190206A90DF11700FFF720
:1052A000FBFE9DF818309DF817209DF81A1001910B
:1052B0009DF81910009107A92AA805F04FFB9DF849
:1052C00018309DF817209DF81A1001919DF81910BB
:1052D000009107A908A805F08EFB9DF81C609DF8B9
:1052E0001D7005F035FC324D2B780193344C23783A
:1052F000009303462AAA3946304604F0F9FF2AAB48
:105300002A7821780DF11B0005F0FAFC9DF81B307E
:10531000002B3FF429AF2AA907A805F08BFE82B223
:105320002AA907A806F074FE044602462AA907A87F
:1053300007F02AFEE0B201F03DFE9DF81C30204A45
:10534000127893423FF41EAF174B1B78962B89D9E6
:105350009DF81B30012B85D102238DF81B3081E78E
:1053600001F028F80024134B1C704FF47A70FDF7FD
:10537000E7FE882208A9104B186807F02AFE4FF4B0
:10538000FA60FDF7DDFE4FF496715B20FCF7D4FB6D
:10539000C820FDF7D5FE21460A20FCF7CDFB4DB015
:1053A000F0BD00BFF0060020BC0600204400002035
:1053B000B002002052A30020B0FA000860040020D0
:1053C00010000020F0B52DED028BADF29C6D04466F
:1053D000B0EE408A0E46174600258DF80F50882201
:1053E0000DF5C261AA4B186807F00AFEA94B1B789D
:1053F000A94A127800923A4631460DF5C26005F08E
:1054000083FFB0EE480A00F033FEA44B03F1100214
:1054100092E803008DE803000FCB04F0CDF98DF87E
:105420000E568DF80C5601238DF80D369DF80F3071
:105430000DF20C42052122F813100133DBB21021CA
:1054400022F8131001338DF80F301AE09DF80C2666
:10545000904B1B789A422DD00DF5C2610DF20C6075
:1054600006F01AFC9DF80F300DF20C4222F81300E2
:1054700001338DF80F300DF20C6100F00F0005F0D4
:105480006DFB05F065FB0128E0D09DF80C36814AE4
:105490001278934215D0511C8B4234D0934239D0AC
:1054A0008B42D9D19DF80D267B4B1B7801339A4254
:1054B000D2D10CE09DF80D26774B1B789A42CBD1C8
:1054C00005E09DF80D06744909788842E3D19DF8FE
:1054D0000F300DF20C41062221F8132001338DF814
:1054E0000F30DFED6F0A9FED6F0A0DF10F0304AA75
:1054F000204607F0B3FA6C4B02221A700020FFF727
:1055000073FD00241BE09DF80D566348007885422A
:10551000C4D1DCE79DF80D065F4A12780132904253
:10552000BED1D4E704AB33F8243000EE103AB8EE25
:10553000400AC0F3071001F05DFD0134E4B29DF8AC
:105540000F30A34200F08B800DF20C4333F81400AF
:1055500000F00F030C2BF0D801A252F823F000BF8B
:10556000AD55000895550008E55500083B55000865
:105570003B55000825550008FD5500083B5500081F
:10558000D1550008DB550008175600082F560008B3
:105590004756000804AB33F8243000EE103AB8EE5A
:1055A000400AC0F3071002F0C7FEC6E704AB53F889
:1055B00024301A0C00EE102A9BB200EE903AF8EE5E
:1055C000600AB8EE400AC0F3071001F083FDB4E7AB
:1055D000C0F3071001F0ACFFAFE7C0F3071002F013
:1055E0002DF8AAE704AB33F8243000EE103AB8EEF9
:1055F000400AC0F3071002F02DFF9EE704AB53F8FA
:1056000024301B0C00EE103AB8EE400AC0F307102D
:1056100001F01EFF91E704AB53F824301B0C00EEA1
:10562000103AB8EE400A000901F0A8FD85E704AB86
:1056300053F824301B0C00EE103AB8EE400A000973
:1056400001F0FEFD79E704AB53F824301B0C00EEAB
:10565000103AB8EE400A000901F076FE6DE74FF40B
:10566000FA70FDF76DFD0024104B1C704FF496711D
:105670004C20FCF761FAC820FDF762FD21460A20A4
:10568000FCF75AFA0DF29C6DBDEC028BF0BD00BF29
:10569000B0FA000810000020B00200202C0000200A
:1056A0000000484400001644F006002052A30020E9
:1056B000F0B52DED028BADF29C6D0446B0EE408A44
:1056C0000E46174600258DF80F5088220DF5C26151
:1056D000AB4B186807F094FCAA4B1B78AA4A1278C7
:1056E00000923A4631460DF5C26005F00DFEB0EE6F
:1056F000480A00F0BDFCA54B03F1100292E803003C
:105700008DE803000FCB04F057F88DF80E568DF896
:105710000C5601238DF80D369DF80F300DF20C421A
:10572000052122F813100133DBB2102122F81310E7
:1057300001338DF80F301AE09DF80C26914B1B7841
:105740009A422DD00DF5C2610DF20C6006F0A4FA5C
:105750009DF80F300DF20C4222F8130001338DF842
:105760000F300DF20C6100F00F0005F0F7F905F0B5
:10577000EFF90128E0D09DF80C36824A1278934266
:1057800015D0511C8B4234D0934239D08B42D9D1A1
:105790009DF80D267C4B1B7801339A42D2D10CE048
:1057A0009DF80D26784B1B789A42CBD105E09DF8E9
:1057B0000D06754909788842E3D19DF80F300DF246
:1057C0000C41062221F8132001338DF80F309FED94
:1057D000700AF0EE400A0DF10F0304AA204607F00C
:1057E0003DF96C4B04221A700120FFF7FDFB0024E9
:1057F0001BE09DF80D56644800788542C4D1DCE773
:105800009DF80D06604A127801329042BED1D4E76D
:1058100004AB33F8243000EE103AB8EE400AC0F37F
:10582000071002F0A5FE0134E4B29DF80F30A34248
:1058300000F08B800DF20C4333F8140000F00F03DE
:105840000C2BF0D801A252F823F000BF99580008A1
:1058500081580008D1580008275800082758000828
:1058600011580008E958000827580008BD580008DA
:10587000C7580008035900081B590008335900088D
:1058800004AB33F8243000EE103AB8EE400AC0F30F
:10589000071003F00FFCC6E704AB53F824301A0CD2
:1058A00000EE102A9BB200EE903AF8EE600AB8EED5
:1058B000400AC0F3071002F0C7FEB4E7C0F30710B8
:1058C00003F05EFDAFE7C0F3071003F0DBFDAAE7CE
:1058D00004AB33F8243000EE103AB8EE400AC0F3BF
:1058E000071003F09BFC9EE704AB53F824301B0C1D
:1058F00000EE103AB8EE400AC0F3071002F0F8FECE
:1059000091E704AB53F824301B0C00EE103AB8EECC
:10591000400A000901F032FC85E704AB53F824305B
:105920001B0C00EE103AB8EE400A000902F04EFFE0
:1059300079E704AB53F824301B0C00EE103AB8EEB4
:10594000400A000902F0C4FF6DE7FCF7EFF94FF4DD
:10595000FA70FDF7F5FB00240F4B1C704FF49671A5
:105960004C20FCF7E9F8C820FDF7EAFB21460A20A5
:10597000FCF7E2F80DF29C6DBDEC028BF0BD00BFB0
:10598000B0FA000810000020B0020020140000202F
:1059900000009644F006002052A3002038B50546CA
:1059A0000020FFF721FB114B00225A60002403E086
:1059B00000F064FB0134E4B2AC42F9D300240C4B98
:1059C0001C7049F642420B490B4B186807F001FB6B
:1059D0004FF496714C20FCF7AFF8C820FDF7B0FBF0
:1059E00021460A20FCF7A8F838BD00BF8C0600202D
:1059F00052A3002010070020B0FA000830B583B091
:105A000049F642421649174B186807F0F9FA002484
:105A10001FE0134800EB4403B3F9021004F51C53D4
:105A2000103300EB4303B3F9022004F59C53083311
:105A300000EB4303B3F9023004F56A55183500EB67
:105A40004500B0F902000090074807F0A5FF0134B7
:105A5000A4B2034B1B88A342DBD203B030BD00BF0E
:105A600010070020B0FA000874FA000830B5A3B09F
:105A7000882269462C4B186807F0C2FA2B4808F0B8
:105A800013F8002407E02B2007F09EFF284807F0BA
:105A900083FF0134E4B20F2CF5D9264808F004F84E
:105AA00010253CE0202007F08FFF234807F074FF0B
:105AB0000134E4B20F2C0DD822AB03EB440333F8CE
:105AC000883C6A1E134113F0010FEBD07C2007F0D5
:105AD0007BFFEAE77C2007F077FF144807F0E4FF3C
